:100000000C9434000C943E000C943E000C943E0082
:100010000C943E000C943E000C943E000C943E0068
:100020000C943E000C943E000C943E000C943E0058
:100030000C943E000C943E000C943E000C943E0048
:100040000C943E000C943E000C943E000C943E0038
:100050000C943E000C943E000C943E000C943E0028
:100060000C943E000C943E0011241FBECFEFD8E04C
:10007000DEBFCDBF0E9488000C94CB000C94000022
:100080009C0140E050E060E472E48FE090E00E9468
:10009000A900215031093093C5002093C40088E1A4
:1000A0008093C10086E08093C20008959091C000C3
:1000B00095FFFCCF8093C6000895CF93DF93EC01AA
:1000C0008991882319F00E945600FACF8AE0DF91C7
:1000D000CF910C945600AC0190E070E06150710932
:1000E000292F30E02617370744F48091C00087FF9E
:1000F000FCCF8091C6008A3029F4FA01E20FF31F89
:1001000010820895FA01E20FF31F80839F5FE8CF0A
:10011000CF93DF93CDB7DEB7E2970FB6F894DEBF8B
:100120000FBECDBF80E895E20E94400062E3CE01A1
:1001300001960E946B00CE0101960E945D002FEF98
:1001400083ED90E3215080409040E1F700C0000033
:10015000EDCFA1E21A2EAA1BBB1BFD010DC0AA1FE9
:10016000BB1FEE1FFF1FA217B307E407F50720F020
:10017000A21BB30BE40BF50B661F771F881F991F9B
:100180001A9469F760957095809590959B01AC01E4
:0A019000BD01CF010895F894FFCFE0
:00000001FF
