:100000000C9434000C943E000C943E000C943E0082
:100010000C943E000C943E000C943E000C943E0068
:100020000C943E000C943E000C943E000C943E0058
:100030000C943E000C943E000C943E000C943E0048
:100040000C943E000C943E000C943E000C943E0038
:100050000C943E000C943E000C943E000C943E0028
:100060000C943E000C943E0011241FBECFEFD8E04C
:10007000DEBFCDBF0E9440000C9459000C940000DC
:10008000519A509A599A2FEF89E698E12150804071
:100090009040E1F700C000005998589A2FEF89E688
:1000A00098E1215080409040E1F700C0000058984E
:0600B000E9CFF894FFCF38
:00000001FF
